:020000040800F2
:10000000000001205D0F0008011800080318000817
:10001000051800080718000809180008000000006B
:100020000000000000000000000000000B180008A5
:100030000D180008000000000F1800081118000833
:10004000AD0F0008AD0F0008AD0F0008AD0F0008A0
:10005000AD0F0008AD0F0008AD0F0008AD0F000890
:10006000AD0F0008AD0F0008AD0F0008AD0F000880
:10007000AD0F0008AD0F0008AD0F0008AD0F000870
:10008000AD0F0008AD0F0008AD0F00080000000024
:10009000000000000000000000000000AD0F00089C
:1000A000AD0F0008AD0F0008AD0F0008AD0F000840
:1000B000AD0F0008AD0F0008AD0F0008AD0F000830
:1000C000AD0F0008AD0F0008AD0F0008AD0F000820
:1000D000AD0F0008AD0F00081D180008000000005B
:1000E000AD0F00082D180008AD0F0008000000003B
:1000F000000000000000000000000000AD0F00083C
:1001000000000000AD0F0008AD0F0008AD0F0008A3
:1001100000000000000000000000000000000000DF
:100120003D180008AD0F0008AD0F0008AD0F000826
:10013000AD0F0008000000000000000000000000FB
:10014000000000000000000000000000AD0F0008EB
:10015000AD0F0008AD0F0008AD0F0008AD0F00088F
:10016000AD0F0008AD0F0008000000000000000007
:10017000000000000000000000000000000000007F
:1001800000000000AD0F00080000000000000000AB
:04019000AD0F0008A7
:1001A00010B5054C237833B9044B13B10448AFF3B1
:1001B00000800123237010BDDC010020000000003E
:1001C0003063000808B5034B1BB103490348AFF384
:1001D000008008BD00000000E0010020306300083E
:1001E00081F0004102E000BF83F0004330B54FEAE8
:1001F00041044FEA430594EA050F08BF90EA020F55
:100200001FBF54EA000C55EA020C7FEA645C7FEAE7
:10021000655C00F0E2804FEA5454D4EB5555B8BF0A
:100220006D420CDD2C4480EA020281EA030382EA7B
:10023000000083EA010180EA020281EA0303362D0D
:1002400088BF30BD11F0004F4FEA01314FF4801CE0
:100250004CEA113102D0404261EB410113F0004FF2
:100260004FEA03334CEA133302D0524263EB4303A9
:1002700094EA050F00F0A780A4F10104D5F1200E47
:100280000DDB02FA0EFC22FA05F2801841F10001A2
:1002900003FA0EF2801843FA05F359410EE0A5F176
:1002A00020050EF1200E012A03FA0EFC28BF4CF0A7
:1002B000020C43FA05F3C01851EBE37101F000455D
:1002C00007D54FF0000EDCF1000C7EEB00006EEB6A
:1002D0000101B1F5801F1BD3B1F5001F0CD34908F4
:1002E0005FEA30004FEA3C0C04F101044FEA44524B
:1002F00012F5800F80F09A80BCF1004F08BF5FEAD2
:10030000500C50F1000041EB045141EA050130BDB1
:100310005FEA4C0C404141EB010111F4801FA4F154
:100320000104E9D191F0000F04BF01460020B1FAA9
:1003300081F308BF2033A3F10B03B3F120020CDAE1
:100340000C3208DD02F1140CC2F10C0201FA0CF0BF
:1003500021FA02F10CE002F11402D8BFC2F1200C24
:1003600001FA02F120FA0CFCDCBF41EA0C019040DA
:10037000E41AA2BF01EB0451294330BD6FEA040423
:100380001F3C1CDA0C340EDC04F11404C4F120020E
:1003900020FA04F001FA02F340EA030021FA04F320
:1003A00045EA030130BDC4F10C04C4F1200220FA77
:1003B00002F001FA04F340EA0300294630BD21FAB5
:1003C00004F0294630BD94F0000F83F4801306BF7B
:1003D00081F480110134013D4EE77FEA645C18BF6F
:1003E0007FEA655C29D094EA050F08BF90EA020F06
:1003F00005D054EA000C04BF1946104630BD91EAFE
:10040000030F1EBF0021002030BD5FEA545C05D100
:100410004000494128BF41F0004130BD14F580043F
:100420003CBF01F5801130BD01F0004545F0FE41B3
:1004300041F470014FF0000030BD7FEA645C1ABFE8
:10044000194610467FEA655C1CBF0B46024650EA1F
:10045000013406BF52EA033591EA030F41F400214B
:1004600030BD00BF90F0000F04BF0021704730B5D1
:100470004FF4806404F132044FF000054FF00001A6
:1004800050E700BF90F0000F04BF0021704730B567
:100490004FF4806404F1320410F0004548BF40423C
:1004A0004FF000013EE700BF42004FEAE2014FEA91
:1004B00031014FEA02701FBF12F07F4393F07F4F6C
:1004C00081F06051704732F07F4208BF704793F06F
:1004D0007F4F04BF41F40021704730B54FF4607482
:1004E00001F0004521F000411CE700BF50EA010285
:1004F00008BF704730B54FF000050AE050EA01022E
:1005000008BF704730B511F0004502D5404261EB9D
:1005100041014FF4806404F132045FEA915C3FF4DE
:10052000D8AE4FF003025FEADC0C18BF03325FEA7B
:10053000DC0C18BF033202EBDC02C2F1200300FA2C
:1005400003FC20FA02F001FA03FE40EA0E0021FA51
:1005500002F11444BDE600BF70B54FF0FF0C4CF43F
:10056000E06C1CEA11541DBF1CEA135594EA0C0FF1
:1005700095EA0C0F00F0DEF82C4481EA030621EA2C
:100580004C5123EA4C5350EA013518BF52EA033567
:1005900041F4801143F4801338D0A0FB02CE4FF019
:1005A0000005E1FB02E506F00042E0FB03E54FF049
:1005B0000006E1FB03569CF0000F18BF4EF0010E41
:1005C000A4F1FF04B6F5007F64F5407404D25FEA3D
:1005D0004E0E6D4146EB060642EAC62141EA5551F0
:1005E0004FEAC52040EA5E504FEACE2EB4F1FD0C32
:1005F00088BFBCF5E06F1ED8BEF1004F08BF5FEAB0
:10060000500E50F1000041EB045170BD06F0004661
:1006100046EA010140EA020081EA0301B4EB5C040E
:10062000C2BFD4EB0C0541EA045170BD41F4801106
:100630004FF0000E013C00F3AB8014F1360FDEBF2B
:10064000002001F0004170BDC4F10004203C35DA07
:100650000C341BDC04F11404C4F1200500FA05F38A
:1006600020FA04F001FA05F240EA020001F000422B
:1006700021F0004110EBD37021FA04F642EB0601A1
:100680005EEA430E08BF20EAD37070BDC4F10C04CB
:10069000C4F1200500FA04F320FA05F001FA04F28F
:1006A00040EA020001F0004110EBD37041F100017B
:1006B0005EEA430E08BF20EAD37070BDC4F1200586
:1006C00000FA05F24EEA020E20FA04F301FA05F2EE
:1006D00043EA020321FA04F001F0004121FA04F296
:1006E00020EA020000EBD3705EEA430E08BF20EA66
:1006F000D37070BD94F0000F0FD101F000464000A0
:1007000041EB010111F4801F08BF013CF7D041EA21
:10071000060195F0000F18BF704703F00046520025
:1007200043EB030313F4801F08BF013DF7D043EAF6
:100730000603704794EA0C0F0CEA135518BF95EAAC
:100740000C0F0CD050EA410618BF52EA4306D1D133
:1007500081EA030101F000414FF0000070BD50EA52
:10076000410606BF1046194652EA430619D094EADC
:100770000C0F02D150EA013613D195EA0C0F05D1C6
:1007800052EA03361CBF104619460AD181EA03011A
:1007900001F0004141F0FE4141F470014FF00000D2
:1007A00070BD41F0FE4141F4780170BD70B54FF06D
:1007B000FF0C4CF4E06C1CEA11541DBF1CEA1355ED
:1007C00094EA0C0F95EA0C0F00F0A7F8A4EB0504CF
:1007D00081EA030E52EA03354FEA013100F08880C6
:1007E0004FEA03334FF0805545EA131343EA12638F
:1007F0004FEA022245EA111545EA10654FEA002644
:100800000EF000419D4208BF964244F1FD0404F5FC
:10081000407402D25B084FEA3202B61A65EB030558
:100820005B084FEA32024FF480104FF4002CB6EB15
:10083000020E75EB030E22BFB61A754640EA0C0095
:100840005B084FEA3202B6EB020E75EB030E22BFD5
:10085000B61A754640EA5C005B084FEA3202B6EB16
:10086000020E75EB030E22BFB61A754640EA9C00D5
:100870005B084FEA3202B6EB020E75EB030E22BFA5
:10088000B61A754640EADC0055EA060E18D04FEA63
:10089000051545EA16754FEA06164FEAC30343EA03
:1008A00052734FEAC2025FEA1C1CC0D111F4801FD0
:1008B0000BD141EA00014FF000004FF0004CB6E7C9
:1008C00011F4801F04BF01430020B4F1FD0C88BF68
:1008D000BCF5E06F3FF6AFAEB5EB030C04BFB6EB73
:1008E000020C5FEA500C50F1000041EB045170BD66
:1008F0000EF0004E4EEA113114EB5C04C2BFD4EB93
:100900000C0541EA045170BD41F480114FF0000E16
:10091000013C90E645EA060E8DE60CEA135594EA92
:100920000C0F08BF95EA0C0F3FF43BAF94EA0C0F95
:100930000AD150EA01347FF434AF95EA0C0F7FF40A
:1009400025AF104619462CE795EA0C0F06D152EA5E
:1009500003353FF4FDAE1046194622E750EA410642
:1009600018BF52EA43067FF4C5AE50EA41047FF453
:100970000DAF52EA43057FF4EBAE12E74FEA4102B6
:10098000B2F1E04324BFB3F5001CDCF1FE5C0DD9ED
:1009900001F0004C4FEAC0024CEA5070B2F1004F37
:1009A00040EB830008BF20F00100704711F0804F3A
:1009B00021D113F13872BCBF01F00040704741F4FF
:1009C00080114FEA5252C2F11802C2F1200C10FA03
:1009D0000CF320FA02F018BF40F001004FEAC123E7
:1009E0004FEAD32303FA0CFC40EA0C0023FA02F38B
:1009F0004FEA4303CCE77FEA625307D150EA013361
:100A00001EBF4FF0FE4040F44000704701F0004030
:100A100040F0FE4040F40000704700BF53B94AB9AF
:100A2000002908BF00281CBF4FF0FF314FF0FF30F6
:100A300000F072B9ADF1080C6DE904CE00F006F8D3
:100A4000DDF804E0DDE9022304B070472DE9F0474A
:100A5000089E04468846002B4BD18A42154667D92A
:100A6000B2FA82F24AB1C2F1200701FA02F320FA87
:100A700007F7954047EA030894404FEA154E230CC8
:100A8000B8FBFEF71FFA85FC0EFB178843EA084304
:100A900007FB0CF1994209D9EB1807F1FF3080F000
:100AA0001B81994240F21881023F2B445B1AA4B289
:100AB000B3FBFEF00EFB103344EA034400FB0CFCD6
:100AC000A44509D92C1900F1FF3380F00781A44512
:100AD00040F2048102382C4440EA0740A4EB0C04A5
:100AE00000271EB1D4400023C6E900433946BDE8C3
:100AF000F0878B4209D9002E00F0EB800027C6E971
:100B0000000138463946BDE8F087B3FA83F7002F75
:100B100047D18B4202D3824200F2FA80841A61EB01
:100B2000030301209846002EE0D0C6E90048DDE727
:100B300002B9FFDEB2FA82F2002A40F08F80491B30
:100B40004FEA154E1FFA85F80127B1FBFEFC230C76
:100B50000EFB1C1143EA014308FB0CF1994207D933
:100B6000EB180CF1FF3002D2994200F2CD8084469E
:100B7000591AA3B2B1FBFEF00EFB101443EA044471
:100B800008FB00F8A04507D92C1900F1FF3302D269
:100B9000A04500F2B6801846A4EB080440EA0C40D9
:100BA0009FE7C7F1200CBB4022FA0CFE4EEA030E71
:100BB00001FA07F420FA0CF521FA0CF34FEA1E486B
:100BC0002543B3FBF8F92C0C08FB19331FFA8EFAF6
:100BD00044EA034309FB0AF49C4202FA07F200FAD2
:100BE00007F10BD91EEB030309F1FF3080F087807A
:100BF0009C4240F28480A9F1020973441B1BADB2F0
:100C0000B3FBF8F008FB103345EA034400FB0AFA93
:100C1000A24508D91EEB040400F1FF336BD2A245B4
:100C200069D90238744440EA0940A0FB0289A4EB68
:100C30000A044C45C2464B4654D351D0002E69D0CD
:100C4000B1EB0A0564EB030404FA0CFCFD40FC4024
:100C50004CEA0505C6E90054002747E7C2F1200326
:100C600020FA03F7954001FA02F021FA03F34FEA64
:100C7000154E3843010CB3FBFEF71FFA85F80EFB47
:100C8000173341EA034107FB08F38B4204FA02F4ED
:100C900007D9691807F1FF3C2FD28B422DD9023FAB
:100CA0002944CB1A81B2B3FBFEF00EFB103341EAAC
:100CB000034100FB08F38B4207D9691800F1FF3CA0
:100CC00017D28B4215D902382944C91A40EA07477E
:100CD0003BE73746304609E70746E7E61846FBE6B6
:100CE0004145ABD2B8EB020A69EB0E02013813465C
:100CF000A4E76046E9E7184695E76746D1E78146ED
:100D00007CE702382C4447E7ACF1020C2B442FE778
:100D1000384608E73746E9E6704700BF034613F850
:100D2000012B002AFBD1181A01387047000000007F
:100D300001F0FF01102A2BDB10F0070F08D010F88C
:100D4000013B013A8B422DD010F0070F42B3F6D190
:100D5000F0B441EA012141EA014122F007047FF0A9
:100D600000070023F0E80256083C85EA010586EA00
:100D7000010685FA47F5A3FA87F586FA47F6A5FA3C
:100D800087F68EB9EED1F0BC01F0FF0102F0070248
:100D900032B110F8013B013A83EA010313B1F8D1F3
:100DA0000020704701387047002D06BF35460338D4
:100DB000073815F0010F07D1013015F4807F02BF0D
:100DC000013015F4C03F0130F0BC0138704700BF5E
:100DD0004FF0FF3C06E000BF4FF0010C02E000BF07
:100DE0004FF0010C4DF804CD4FEA410C7FEA6C5CEA
:100DF0004FEA430C18BF7FEA6C5C1BD001B050EA8D
:100E0000410C0CBF52EA430C91EA030F02BF90EA77
:100E1000020F0020704710F1000F91EA030F58BF36
:100E2000994208BF90422CBFD8176FEAE37040F098
:100E3000010070474FEA410C7FEA6C5C02D150EA36
:100E4000013C07D14FEA430C7FEA6C5CD6D152EAF1
:100E5000033CD3D05DF8040B704700BF84461046B6
:100E600062468C461946634600E000BF01B5FFF7B5
:100E7000B7FF002848BF10F1000F01BD4DF808ED85
:100E8000FFF7F4FF0CBF012000205DF808FB00BF56
:100E90004DF808EDFFF7EAFF34BF012000205DF8B0
:100EA00008FB00BF4DF808EDFFF7E0FF94BF0120FD
:100EB00000205DF808FB00BF4DF808EDFFF7CEFFFE
:100EC00094BF012000205DF808FB00BF4DF808ED3D
:100ED000FFF7C4FF34BF012000205DF808FB00BF0E
:100EE0004FEA410C7FEA6C5C02D150EA013C0AD126
:100EF0004FEA430C7FEA6C5C02D152EA033C02D118
:100F00004FF0000070474FF0010070474FEA410278
:100F100012F5001215D211D56FF47873B3EB62524B
:100F200012D94FEAC12343F0004343EA505311F072
:100F3000004F23FA02F018BF404270474FF0000004
:100F4000704750EA013005D111F0004008BF6FF042
:100F5000004070474FF00000704700BFDFF834D00A
:100F6000002103E00C4B5B58435004310B480C4B01
:100F700042189A42F6D30B4A02E0002342F8043B9F
:100F8000094B9A42F9D300F061FC03F05DF900F0DF
:100F900003FB70470000012090660008000000205D
:100FA000DC010020DC010020A8030020FEE7000097
:100FB00030B589B0002400941D4B1A6B42F0010239
:100FC0001A631A6B02F001020092009A01941A6BE4
:100FD00042F008021A631A6B02F008020192019AA9
:100FE00002941A6B42F002021A631B6B03F00203B5
:100FF0000293029B0F4D22464FF46041284601F0B8
:101000008BFA4FF48053039303230493059403A9AD
:10101000284601F0AFF94FF4604303930123049392
:101020000594069403A9284601F0A4F909B030BD3F
:1010300000380240000C024000B583B0002101914D
:10104000094B1A6B42F480021A631B6B03F4800392
:101050000193019B0A46382000F004FF382000F07D
:1010600035FF03B05DF804FB0038024000000000CB
:101070002DE9F0432DED028B95B08B4B1A888B4BED
:10108000A3FB02135B094FF4967101FB13239BB280
:10109000EBB1854B1A8840F2CA339A4200F0958032
:1010A000814B1A8840F2B6339A4200F0A7807E4BFB
:1010B0001A8840F2E7339A4200F0D5807A4A1388C2
:1010C0000133138015B0BDEC028BBDE8F0836423BF
:1010D000029306230193744C231D00930123A8223D
:1010E0003221734801F08CFD6379207940EA0320B6
:1010F00000B26081E379A67946EA032636B2A6817A
:10110000637A257A45EA03252DB2E58107EE900A38
:10111000F8EEE77A17EE900AFFF7C6F902460B469B
:10112000FFF764F85EA3D3E90023FFF73FFBFFF767
:1011300025FC0746206107EE906AF8EEE77A17EE85
:10114000900AFFF7B1F902460B46FFF74FF854A398
:10115000D3E90023FFF72AFBFFF710FC0646606186
:1011600007EE905AF8EEE77A17EE900AFFF79CF92F
:1011700002460B46FFF73AF849A3D3E90023FFF7ED
:1011800015FBFFF7FBFB0546A0613E22002104A8EA
:1011900003F07EF83846FFF787F9804689462846EF
:1011A000FFF782F9CDE902013046FFF77DF9CDE97D
:1011B000000142464B463F4904A803F0CDFC82B2F1
:1011C00004A93D4802F02BFF63E73C4C0022214676
:1011D0003B4802F0F7FC3522002104A803F058F840
:1011E00022786378E1780091364904A803F0B4FCD2
:1011F00082B204A9304802F012FF51E7324B1B883B
:1012000007EE903AF8EEE77AB0EE087A67EE877A62
:10121000DFED2E6A87EEA67A2D4B83ED007ADFEDA7
:101220002D7A37EE677ADFED2C7A87EE278AF3EE98
:10123000097A38EE278A294B83ED008A362200216D
:1012400004A803F025F818EE100AFFF72DF902465E
:101250000B46234904A803F07FFC82B204A9164878
:1012600002F0DDFE23E71F4C00222146144802F065
:101270007EFC3522002104A803F00AF82278637866
:10128000A1780091184904A803F066FC82B204A971
:10129000094802F0C4FE044B00221A800EE700BF8A
:1012A00000000000C0FFDF40F8010020B5814E1BA8
:1012B0003C02002068630008600300203C0300201B
:1012C00040030020786300083402002000F07F45CE
:1012D000380200205C8F423F0AD7233B9002002057
:1012E000886300082002002090630008FEE70000E9
:1012F00008B50C480C4B03600C4B43600023836023
:10130000C3604FF48042026143618361C361036241
:1013100001F02AFB00B908BD4FF4C2710448FFF781
:10132000E5FF00BF3C02002000540040801A060088
:10133000A063000808B50B480B4B03604FF4E13382
:10134000436000238360C36003610C2242618361B8
:10135000C36102F035FE00B908BD40F2DF11034859
:10136000FFF7C4FF6003002000440040A0630008B2
:1013700000B585B01648174B03604FF44033436007
:10138000002383600361012282610362C362124908
:101390008162C360C2610263426100F079FB68B997
:1013A0001023009301230193072302936946084801
:1013B00000F07EFC38B905B05DF804FB4FF4B37162
:1013C0000648FFF793FF4FF4B8710448FFF78EFF0C
:1013D00094020020002001400100000FA0630008DB
:1013E00000B591B03048314B0360002343607F2249
:1013F0008260FF22C26003614361836102F085F96C
:1014000000283DD112238DF82C3032238DF82D3059
:1014100000228DF82E200E920F920BA9224802F086
:101420004EFA90BB03238DF8283001238DF8293024
:1014300017238DF82A3013238DF82B3000220AA9A8
:10144000194802F0CFF928BB00228DF800208DF852
:1014500001200A238DF80230019203920492059232
:101460000692079201238DF820304FF48073099380
:1014700069460D4802F0A2FA88B911B05DF804FB84
:101480004FF4D2710A48FFF731FF4FF4D871084882
:10149000FFF72CFF4FF4DD710548FFF727FF4FF4EE
:1014A000E6710348FFF722FF4003002000280040B8
:1014B000A063000800B599B000220092324B196C6D
:1014C00041F0805119641B6C03F080530093009B22
:1014D00001922E490B6823F4404343F400430B6010
:1014E0000B6803F440430193019B0A230C930123EF
:1014F0000F9310211091119302231293139208223B
:101500001492542215921693042317930CA801F0F9
:10151000EBFC50BB0F230793022108910023099392
:101520004FF480520A920B9307A801F0FDFE08BB0E
:10153000022302934FF40073059302A801F0C6FF43
:10154000E8B901F09DFF124BA3FB0030800900F0C9
:10155000C9FC042000F0DCFC002211464FF0FF30F3
:1015600000F080FC19B05DF804FB4FF49671094857
:10157000FFF7BCFE4FF49D710648FFF7B7FE40F23F
:1015800041110448FFF7B2FE0038024000700040ED
:10159000D34D6210A063000800B587B000F0A0F939
:1015A000FFF788FFFFF704FDFFF746FDFFF7A0FEFA
:1015B000FFF7C0FEFFF7DCFEFFF712FF01220E4926
:1015C0000E4800F08FFA06AA572302F8013D642363
:1015D000029301230193009220223221084801F056
:1015E00051FA4FF48041074800F09CFF4FF47A70A5
:1015F00000F0A2F9F5E700BF3402002094020020B9
:101600003C020020000C024010B582B0002400947F
:10161000214B5A6C42F480425A645A6C02F4804264
:101620000092009A01941A6C42F080521A641B6C6A
:1016300003F080530193019B072000F001FC224638
:1016400021466FF00B0000F00DFC224621466FF0A2
:101650000A0000F007FC224621466FF0090000F066
:1016600001FC224621466FF0040000F0FBFB2246FD
:1016700021466FF0030000F0F5FB224621466FF093
:10168000010000F0EFFB224621464FF0FF3000F052
:10169000E9FB02B010BD00BF0038024002681A4BDF
:1016A0009A4200D0704710B582B0044600230193DF
:1016B000164A516C41F480715164526C02F480728C
:1016C0000192019A1248134A026043608360C3602A
:1016D0004FF4806202614FF4006242614FF40052A5
:1016E00082614FF48072C2610362436200F0A0FC29
:1016F00020B9074BA3639C6302B010BD6B21064861
:10170000FFF7F4FDF5E700BF00200140003802407C
:10171000DC02002010640240DC6300080268124B07
:101720009A4200D0704700B587B04FF41073019310
:1017300012230293012303930323049304230593A9
:101740000DEB0301094800F015FE00230093084B40
:101750001A6C42F400121A641B6C03F40013009319
:10176000009B07B05DF804FB0054004000040240F9
:101770000038024008B50268074B9A4200D008BD05
:10178000064B01221A6000221146292000F06AFB54
:10179000292000F09BFBF2E7002800403C0E474266
:1017A0000268154B9A4200D0704710B586B00024ED
:1017B000009403F5FA331A6C42F400321A641B6C7D
:1017C00003F400330093009B0C2301930223029344
:1017D00001230393032304930723059301A90748D7
:1017E00000F0C8FD22462146262000F03BFB2620C3
:1017F00000F06CFB06B010BD004400400000024049
:101800007047FEE7FEE7FEE7FEE770477047704768
:1018100008B500F07FF800F08BFB08BD08B5024862
:1018200002F07AFC08BD00BF6003002008B5024842
:1018300001F004FF08BD00BF4003002008B50248C6
:1018400000F0AAFC08BD00BFDC0200200F49D1F85F
:10185000883043F47003C1F888300D4B1A6842F0A9
:1018600001021A60002098601A6822F0847222F443
:1018700080321A60074A5A601A6822F480221A607D
:10188000D8604FF000638B60704700BF00ED00E050
:10189000003802401030002410B504460E4B187872
:1018A0004FF47A73B3FBF0F30C4A1068B0FBF3F01B
:1018B00000F018FB68B90F2C01D901200AE00022C2
:1018C00021464FF0FF3000F0CDFA034B5C60002062
:1018D00000E0012010BD00BF040000200000002037
:1018E00008B50B4B1A6842F400721A601A6842F489
:1018F00080621A601A6842F480721A60032000F055
:101900009FFA0020FFF7C8FFFFF77EFE002008BD0A
:10191000003C0240034A1168034B1B780B441360E0
:10192000704700BFA003002004000020014B18688E
:10193000704700BFA003002038B50446FFF7F6FF4C
:101940000546B4F1FF3F02D0044B1B781C44FFF75F
:10195000EDFF401BA042FAD338BD00BF04000020B9
:10196000494B5A6822F440325A605A6841680A4327
:101970005A600268536823F48073536002685368A6
:10198000016943EA012353600268536823F04073FE
:1019900053600268536881680B4353600268936820
:1019A00023F40063936002689368C1680B439360FB
:1019B000826A364B9A4249D00268936823F070637A
:1019C000936002689368816A0B439360026893682E
:1019D00023F04053936002689368C16A0B4393609D
:1019E0000268936823F00203936002689368816938
:1019F00043EA41039360036A002B32D102685368C3
:101A000023F4006353600268D36A23F47003D36243
:101A10000168CB6AC269013A43EA0253CB620268A9
:101A2000936823F40073936002689368016B43EA40
:101A3000412393600268936823F480639360026893
:101A40009368416943EA8123936070470268936811
:101A500023F0706393600268936823F040539360AF
:101A6000BEE70268536843F400635360026853683A
:101A700023F46043536001684B68426A013A43EAC9
:101A800042334B60BFE700BF002301400100000F5D
:101A900030B310B50446036C43B1236C13F0100F40
:101AA0000AD00120002384F83C3010BD436480F844
:101AB0003C30FFF7F3FDF0E7236C23F4885323F069
:101AC000020343F0020323642046FFF749FF00208E
:101AD0006064236C23F0030343F001032364E1E714
:101AE0000120704730B583B00023019390F83C305B
:101AF000012B00F08180012380F83C300468A3684A
:101B000013F0010F13D1A36843F00103A3603F4B0F
:101B10001C683F4BA3FB0434A40C04EB4404019465
:101B200002E0019C013C0194019C002CF9D1036866
:101B30009C6814F0010F61D0046C24F4E06424F07C
:101B4000010444F4807404645B6813F4806F05D06E
:101B5000036C23F4405343F480530364036C13F485
:101B6000805F36D0436C23F006034364134604467B
:101B7000002280F83C20826B2648D063A26B264866
:101B80001064A26B2548D06422686FF022001060B8
:101B90002568686840F0806068602568A86840F43F
:101BA0008070A86020680A4600F14C01A06B00F02C
:101BB000A5FA1B4B5B6813F01F0F0DD123689A68C1
:101BC00012F0405F1DD19A6842F080429A60002076
:101BD00015E000234364C9E72368124A934201D009
:101BE00000200CE09A6812F0405F0CD19A6842F035
:101BF00080429A60002002E0022000E0002003B052
:101C000030BD0020FBE70020F9E700BF0000002006
:101C100083DE1B432B1C00088F1C00089B1C000844
:101C20000023014000200140704708B5836B1A6C07
:101C300012F0500F03D09B6BDB6C984708BD1A6CF9
:101C400042F400721A641A68916811F0405F19D169
:101C50009969B9B9D16A11F4700F03D0916811F480
:101C6000806F0FD1516821F0200151601A6C22F46D
:101C700080721A641A6C12F4805F03D11A6C42F0FD
:101C800001021A641846FFF7CFFFD7E7704708B57F
:101C9000806BFFF7FBFF08BD704708B5806B4023E2
:101CA0000364436C43F004034364FFF7F5FF08BD8E
:101CB00030B482B00023019390F83C30012B00F047
:101CC000B780012380F83C300B68092B3ED90568AA
:101CD000EA689BB203EB43031E3B072404FA03F3B9
:101CE00022EA0303EB600568EA688C680B8803EB63
:101CF00043031E3B04FA03F31343EB604B68062BCC
:101D00003AD805686A6B03EB8303053B1F2404FA8A
:101D100003F322EA03036B6305686A6B4B6803EB0A
:101D20008303053B0C8804FA03F313436B630268D7
:101D3000404B9A4250D002683E4B9A4255D0002305
:101D400080F83C30184602B030BC704705682A69FC
:101D50009BB203EB4303072404FA03F322EA0303D1
:101D60002B6105682A698C680B8803EB430304FA2E
:101D700003F313432B61C1E70C2B16D805682A6BBC
:101D800003EB8303233B1F2404FA03F322EA030338
:101D90002B6305682A6B4B6803EB8303233B0C889A
:101DA00004FA03F313432B63C1E70568EA6A03EB04
:101DB0008303413B1F2404FA03F322EA0303EB628B
:101DC0000568EA6A4B6803EB8303413B0C8804FA1D
:101DD00003F31343EB62AAE70B68122BABD1164A4D
:101DE000536843F480035360A5E70B68103B012B55
:101DF000A5D8114A536843F4000353600B68102BB5
:101E00009DD10E4B1B6802F1467202F52E3202F292
:101E10008332A2FB03239B0C03EB83035A00019242
:101E200002E0019B013B0193019B002BF9D186E766
:101E3000022088E70020014000230140000000202C
:101E4000074AD36823F4E0631B041B0C000200F470
:101E5000E060184340F0BF6040F40030D06070474D
:101E600000ED00E030B4174BDB68C3F30223C3F18D
:101E70000704042C28BF04241D1D062D18D9033B7C
:101E80004FF0FF3505FA04F421EA0401994005FA00
:101E900003F322EA0303194300280BDB0901C9B24B
:101EA00000F1604000F5614080F8001330BC7047DD
:101EB0000023E5E700F00F000901C9B2024B1954F5
:101EC000F4E700BF00ED00E014ED00E000F01F02B9
:101ED000400901239340024A42F82030704700BF76
:101EE00000E100E00138B0F1807F0AD2064B586073
:101EF000064AF02182F823100020986007221A6019
:101F000070470120704700BF10E000E000ED00E0E6
:101F1000042805D0054A136823F0040313607047B2
:101F2000024A136843F004031360704710E000E0B6
:101F300008B5FFF79DF808BD30B405682C6824F497
:101F400080242C60046863608368402B05D003689C
:101F500099600368DA6030BC704703689A60036870
:101F6000D960F8E70268D3B2103B0B49A1FB031319
:101F70001B090A49C95CC165032B06D822F47F728C
:101F800022F003028265806D704722F47F7222F096
:101F9000030204328265F6E7ABAAAAAA60630008CE
:101FA000836A826992B9012B0AD01BB1022B01D03E
:101FB00000207047C36A13F0807F2CD10020704747
:101FC000C36AB3F1C07F28D000207047B2F5005F2C
:101FD00005D0022B29D9032B15D000207047032BE5
:101FE00003D8DFE803F01C041C0A00207047C36A12
:101FF00013F0807F15D100207047C36AB3F1C07F12
:1020000011D000207047C36A13F0807F01D00120F7
:102010007047002070470120704701207047012061
:102020007047012070470120704701207047000071
:1020300070B50446FFF77AFC002C5BD00546002300
:1020400084F83430022384F835302268136823F092
:102050000103136023681A6812F0010F0AD0FFF71A
:1020600065FC401B0528F5D920236365032084F80F
:10207000350070BD1A68204810406168A2680A43A4
:10208000E1680A4321690A4361690A43A1690A4375
:10209000E1690A43216A0A430243616A04291ED0A6
:1020A0001A602668756925F00705636A1D43042BCD
:1020B00007D1A36A1D43E36A1BB12046FFF770FFF7
:1020C00090B975612046FFF74DFFE26D3F239340C5
:1020D000836000206065012384F83530C9E7E16A38
:1020E000206B01430A43DBE740236365012084F84A
:1020F0003500BEE70120BCE73F8010F038B5856DA4
:1021000090F83440012C31D0012480F8344090F80C
:102110003540E4B2012C04D0002380F83430022092
:1021200038BD0446022084F8350000206065204652
:10213000FFF702FFE26D3F239340AB602268136814
:1021400043F0160313602268536943F08003536120
:10215000236C23B12268136843F0080313602268DC
:10216000136843F0010313600020D9E70220D7E78A
:1021700090F83530DBB2022B03D080234365012079
:102180007047052380F835300268136823F0010397
:102190001360002070470000F0B583B004460023B0
:1021A0000193724B1D68724BA3FB0535AD0A876D19
:1021B0003E68C26D08239340334210D003681A680A
:1021C00012F0040F0BD01A6822F004021A60C26DDC
:1021D00008239340BB60436D43F001034365E26D08
:1021E00001239340334209D02268526912F0800FD4
:1021F00004D0BB60636D43F002036365E26D0423AA
:102200009340334209D02268126812F0020F04D0C2
:10221000BB60636D43F004036365E26D102393407C
:10222000334224D02268126812F0080F1FD0BB601E
:1022300023681A6812F4802F0DD01B6813F4002F46
:1022400004D1236C9BB12046984710E0A36C73B176
:10225000204698470BE01A6812F4807F03D11A6871
:1022600022F008021A60236C0BB120469847E26DF9
:1022700020239340334255D02268126812F0100F89
:1022800050D0BB6094F83530DBB2052B0ED02368FC
:102290001A6812F4802F33D01B6813F4002F2AD150
:1022A000636C002B3ED0204698473BE022681368C1
:1022B00023F0160313602268536923F080035361EF
:1022C000236CA3B12268136823F008031360E26D46
:1022D0003F239340BB60002384F83430012384F80B
:1022E0003530236D002B3FD0204698473CE0A36C4F
:1022F000002BE7D1EBE7E36BA3B12046984711E051
:102300001A6812F4807F09D11A6822F010021A604C
:10231000002384F83430012384F83530E36B0BB1AB
:1023200020469847636DFBB1636D13F0010F17D022
:10233000052384F835302268136823F00103136005
:10234000019B01330193AB4204D823681B6813F04F
:10235000010FF5D1002384F83430012384F835309F
:10236000E36C0BB12046984703B0F0BD000000209D
:10237000B5814E1B00230F2B00F2C580F0B482B054
:1023800039E0042200E00022B2403A4302345E4EBB
:1023900046F824205D4A1468EA4302EA04064F68BE
:1023A00017F4803F01D045EA0406584C2660646863
:1023B00002EA04064F6817F4003F01D045EA04061C
:1023C000524C6660A46802EA04064F6817F4801F46
:1023D00001D045EA04064D4CA660E46822404E68F0
:1023E00016F4001F01D045EA0402484CE2600133B4
:1023F0000F2B00F2858001229A400C6804EA020546
:10240000AA42F4D14C68022C01D0122C10D1DE0863
:10241000083650F826C003F00704A7000F24BC407C
:102420002CEA040C0C69BC4044EA0C0440F8264039
:1024300004685F000326BE40F64306EA040C4C68BD
:1024400004F00304BC4044EA0C0404604C6804F14A
:10245000FF3CBCF1010F03D9112C01D0122C10D17B
:10246000846806EA040CCC68BC4044EA0C0484602E
:10247000446824EA02024C68C4F300149C401443EC
:102480004460C26816408A68BA403243C2604A68F3
:1024900012F0805FABD0002201921D4A546C44F4CC
:1024A00080445464526C02F480420192019A9C0868
:1024B000A61C154A52F8267003F0030296000F225C
:1024C000B24027EA0207134A90423FF45CAF02F59C
:1024D000806290420ED002F5806290420CD002F5EC
:1024E000806290420AD002F5806290423FF449AF88
:1024F000072249E7012247E7022245E7032243E793
:1025000002B0F0BC7047704700380140003C014009
:10251000003802400000024012B90904816170478E
:1025200081617047436959404161704703685A6946
:1025300012F4806F0DD06FF480625A61042303643B
:1025400000230363202280F83D2080F83C300120E6
:10255000704700207047F8B506460C4617461D46E2
:102560001EE02DB1FFF7E2F9069BC01AA84217D969
:1025700000233363202286F83D2086F83E3086F81B
:102580003C3003201AE033685B6924EA03039BB202
:10259000B3FA83F35B099F420FD1B5F1FF3FE0D15E
:1025A000C4F30743012BEED033689B6924EA03038D
:1025B0009BB2B3FA83F35B09EDE70020F8BDF8B5F1
:1025C00004460D4616461F4632E01A6842F4007271
:1025D0001A6023686FF480625A6104232364002325
:1025E0002363202284F83D2084F83C3001202DE034
:1025F00026B1FFF79BF9C01BB04219D90023236312
:10260000202284F83D2084F83C3003201EE023681B
:102610005B6925EA03039BB2003318BF0123A3B112
:1026200023685A6912F4806FCFD1B6F1FF3FDFD132
:10263000C5F30743012BEAD023689B6925EA03030E
:102640009BB2003318BF0123E9E70020F8BD70B545
:1026500004460D46164623685B6913F0800F19D1B6
:102660002046FFF763FFB8B9B5F1FF3FF3D025B1BE
:10267000FFF75CF9801BA842EDD9236C43F02003DF
:10268000236400232363202284F83D2084F83C3017
:10269000032000E0002070BD0120FCE72DE9F0419F
:1026A00084B004460E46174698460B9D0268136890
:1026B00043F48073136000950A9B00224FF00111D0
:1026C000FFF749FF002847D1236806F0FE061E6188
:1026D0002B460A9A26492046FFF771FF20B1236C4A
:1026E000042B3ED1012338E00023039323685A6969
:1026F00003929B690393039B2A460A992046FFF79E
:10270000A6FF034648B1236C042B2CD12268136822
:1027100043F40073136001231FE0B8F1010F13D0DD
:1027200023683A0A1A612A460A992046FFF78FFF62
:10273000034668B1236C042B17D12268136843F455
:1027400000731360012308E02268FFB2176104E000
:102750002268FFB2176100E00323184604B0BDE809
:10276000F0810323F9E70323F7E70323F5E700BF2D
:10277000020001002DE9F04184B004460E461746E0
:1027800098460B9D0268136843F4806313600268E7
:10279000136843F48073136000950A9B00224FF086
:1027A0000111FFF7D8FE002874D1F6B2236806F0B5
:1027B000FE021A612B460A9A3F492046FFF7FFFEA8
:1027C00020B1236C042B6AD1012364E0002303931E
:1027D00023685A6903929B690393039B2A460A99CB
:1027E0002046FFF734FF48B1236C042B59D12268EF
:1027F000136843F40073136001234CE0B8F1010F38
:1028000012D12368FFB21F612A460A992046FFF7BA
:102810001EFF00B3236C042B47D12268136843F4D6
:1028200000731360012336E023683A0A1A612A46CE
:102830000A992046FFF70BFF48B1236C042B32D1D5
:102840002268136843F400731360012323E02368B4
:10285000FFB21F61D8E72268136843F480731360E6
:1028600000950A9B00224FF001112046FFF773FEEE
:10287000E8B9236846F001061E612B460A9A0E4904
:102880002046FFF79CFE034628B1236C042B10D191
:10289000012300E00323184604B0BDE8F0810323C0
:1028A000F9E70323F7E70323F5E70323F3E703231C
:1028B000F1E70323EFE700BF0200010070B5044613
:1028C0000D46164623685B6913F0040F19D12046A4
:1028D000FFF72CFEB8B9B5F1FF3FF3D025B1FFF7F4
:1028E00025F8801BA842EDD9236C43F02003236414
:1028F00000232363202284F83D2084F83C30032009
:1029000000E0002070BD0120FCE770B505460C46D4
:1029100016462B685A6912F0400F22D15A6912F0FC
:10292000100F11D124B1FFF701F8801BA042F0D99C
:102930002B6C43F020032B64202385F83D300023CB
:1029400085F83C30032070BD6FF010025A610023FF
:102950002B642B63202285F83D2085F83C30012034
:10296000F1E70020EFE70000002800F0828010B5BA
:10297000044690F83D30002B41D0242384F83D30AC
:102980002268136823F00103136000F07FFD3A4BC7
:10299000A3FB00239B0C226853606168374A914275
:1029A00032D80133226813626368344A934235D8BF
:1029B0005B00B0FBF3F0C0F30B03032B00D8042043
:1029C0002368D861E369216A22680B431360236995
:1029D000E16822680B4393606369A16922680B4335
:1029E000D3602268136843F0010313600020206461
:1029F000202384F83D30206384F83E0010BD80F829
:102A00003C30FEF78BFEB8E74FF4967202FB03F3FF
:102A10001B4AA2FB03239B090133C3E7A16889B9C1
:102A200003EB4302B0FBF2F2C2F30B02B2FA82F202
:102A30005209E2B991B903EB4303B0FBF3F040F460
:102A40000040BDE703EB830202EB8202B0FBF2F22F
:102A5000C2F30B02B2FA82F25209EAE703EB8303F4
:102A600003EB8303B0FBF3F040F44040A8E7012000
:102A7000A6E70120704700BF83DE1B43A08601004C
:102A8000D34D62102DE9F04182B004460E46174640
:102A90009846FEF74BFF94F83D30DBB2202B04D074
:102AA0000223184602B0BDE8F081054600901923C4
:102AB000012251492046FFF74EFD002840F0938047
:102AC00094F83C30012B00F09080012384F83C30D6
:102AD00023681A6812F0010F03D11A6842F001024C
:102AE0001A602268136823F400631360212384F8BA
:102AF0003D30402384F83E3000232364089B63620A
:102B0000BDF8243063853D4BE362638D23850195D9
:102B10000A9B009343463A4631462046FFF7BEFDE6
:102B2000B0B1236C042B04D1002384F83C30012382
:102B3000B7E7002384F83C300323B2E7236C042B6F
:102B400055D12268136843F4007313600123A8E78A
:102B5000238D002B28D02A460A992046FFF777FDBF
:102B60000028EBD1636A5A1C626222681B781361E9
:102B7000238D013B9BB22385628D013A92B262851F
:102B80002268516911F0040FE2D0002BE0D0636A93
:102B9000591C61621B781361238D013B2385638D72
:102BA000013B9BB26385D3E72A460A992046FFF78B
:102BB00085FE034648B1236C042B1AD122681368A2
:102BC00043F40073136001236BE721680A6842F441
:102BD00000720A60202284F83D20002284F83E2002
:102BE00084F83C205DE702235BE7022359E70323D7
:102BF00057E7032355E700BF020010000000FFFF66
:102C00002DE9F04186B004460E4617469846FEF779
:102C10008DFE94F83D30DBB2202B04D002263046E6
:102C200006B0BDE8F08105460090192301228B49CA
:102C30002046FFF790FC002840F04B8194F83C3090
:102C4000012B00F04881012384F83C3023681A6886
:102C500012F0010F03D11A6842F001021A602268D3
:102C6000136823F400631360222384F83D3040236B
:102C700084F83E30002323640C9B6362BDF834303B
:102C80006385774BE362638D238501950E9B0093EB
:102C900043463A4631462046FFF76CFD064660B192
:102CA000236C042B04D1002384F83C300126B6E7C2
:102CB000002384F83C300326B1E7238D5BB90293EF
:102CC00023685A6902929A690292029A1A6842F437
:102CD00000721A6075E0012B0AD0022B1AD0002373
:102CE000059323685A6905929B690593059B68E0E3
:102CF0002268136823F4806313600023039323681E
:102D00005A6903929A690392039A1A6842F400720C
:102D10001A6056E02268136823F480631360226807
:102D2000136843F4006313600023049323685A6913
:102D300004929B690493049B43E02A460E99204623
:102D4000FFF7E3FD68B923681A69636A591C616279
:102D50001A70238D013B2385638D013B9BB26385F4
:102D60002FE0236C202B01D0012658E7032656E7DD
:102D700000950E9B00223B492046FFF7ECFB002804
:102D800040F0AB802268136843F40073136023683B
:102D90001A69636A591C61621A70238D013B23858D
:102DA000638D013B9BB2638523681A69636A591C72
:102DB00061621A70238D013B2385638D013B9BB2B9
:102DC0006385238D002B7BD0032B4DD8012BB4D0F2
:102DD000022BCDD000950E9B002222492046FFF702
:102DE000BAFB00287BD12268136823F48063136048
:102DF00023681A69636A591C61621A70238D013B4A
:102E00002385638D013B9BB2638500950E9B002259
:102E100014492046FFF79FFB002862D122681368FF
:102E200043F40073136023681A69636A591C616272
:102E30001A70238D013B2385638D013B9BB2638513
:102E400023681A69636A591C61621A70238D013BF9
:102E50002385638D013B9BB26385B2E702001000BE
:102E60000000FFFF040001002A460E992046FFF7EC
:102E70004CFDF0B923681A69636A591C61621A70C3
:102E8000238D013B2385638D013B9BB263852368C2
:102E90005A6912F0040F94D01A69636A591C61626E
:102EA0001A70238D013B2385638D013B9BB26385A3
:102EB00087E7236C202B01D00126B0E60326AEE67F
:102EC000202384F83D30002384F83E3084F83C30E1
:102ED000A5E60226A3E60226A1E603269FE6032630
:102EE0009DE603269BE600BF002800F0BB8170B57D
:102EF00082B00446036813F0010F3BD0A74B9B68D8
:102F000003F00C03042B2CD0A44B9B6803F00C03A0
:102F1000082B21D06368B3F5803F4FD0B3F5A02FC5
:102F200052D09E4B1A6822F480321A601A6822F43A
:102F300080221A606368002B50D0FEF7F7FC05462C
:102F4000964B1B6813F4003F14D1FEF7EFFC401BB7
:102F50006428F5D903208AE1904B5B6813F4800F55
:102F6000D8D08E4B1B6813F4003F03D06368002B4E
:102F700000F07A81236813F0020F55D0874B9B68CD
:102F800013F00C0F3ED0854B9B6803F00C03082B0D
:102F900033D0E368002B68D0814B01221A60FEF722
:102FA000C5FC05467D4B1B6813F0020F54D1FEF79C
:102FB000BDFC401B0228F5D9032058E1774A13686D
:102FC00043F480331360B5E7744B1A6842F48022EF
:102FD0001A601A6842F480321A60ABE7FEF7A6FC6A
:102FE00005466E4B1B6813F4003FC3D0FEF79EFCF2
:102FF000401B6428F5D9032039E1684B5B6813F462
:10300000800FC6D1654B1B6813F0020F04D0E36834
:10301000012B01D001202AE1604A136823F0F80354
:10302000216943EAC1031360236813F0080F40D0FD
:10303000636963B35B4B01221A60FEF777FC0546B8
:10304000564B5B6F13F0020F33D1FEF76FFC401B42
:103050000228F5D903200AE1504A136823F0F80347
:10306000216943EAC1031360DEE74D4B00221A6079
:10307000FEF75CFC0546494B1B6813F0020FD3D0EA
:10308000FEF754FC401B0228F5D90320EFE0454B26
:1030900000221A60FEF74AFC0546404B5B6F13F0B6
:1030A000020F06D0FEF742FC401B0228F5D9032090
:1030B000DDE0236813F0040F79D0384B1B6C13F05C
:1030C000805F33D100230193344B1A6C42F080525D
:1030D0001A641B6C03F080530193019B0125324B52
:1030E0001B6813F4807F23D0A368012B34D0052BF9
:1030F00038D02A4B1A6F22F001021A671A6F22F099
:1031000004021A67A368002B36D0FEF70FFC0646B0
:10311000224B1B6F13F0020F48D1FEF707FC801BF8
:1031200041F288339842F3D90320A0E00025D6E786
:103130001D4A136843F480731360FEF7F7FB0646DD
:10314000194B1B6813F4807FCED1FEF7EFFB801B79
:103150000228F5D903208AE0104A136F43F00103D7
:103160001367CFE70D4B1A6F42F004021A671A6F0C
:1031700042F001021A67C5E7FEF7D8FB0646074B87
:103180001B6F13F0020F11D0FEF7D0FB801B41F232
:1031900088339842F3D9032069E000BF0038024029
:1031A00000004742800E474200700040E5B9A36925
:1031B000002B5BD0304A926802F00C02082A58D0EB
:1031C000022B17D02D4B00221A60FEF7AFFB0446EE
:1031D000294B1B6813F0007F42D0FEF7A7FB001BB2
:1031E0000228F5D9032042E0234A136C23F08053D0
:1031F0001364DCE7214B00221A60FEF797FB0546BB
:103200001D4B1B6813F0007F06D0FEF78FFB401BA1
:103210000228F5D903202AE0E369226A1343626A8F
:1032200043EA8213A26A5208013A43EA0243E26A7D
:1032300043EA0263104A5360104B01221A60FEF702
:1032400075FB04460C4B1B6813F0007F06D1FEF79C
:103250006DFB001B0228F5D9032008E0002006E0E2
:10326000002004E001207047012000E0002002B0AF
:1032700070BD0120FBE700BF0038024060004742FC
:10328000264B9B6803F00C03042B44D0082B01D081
:10329000234870472DE9F04B204B5A6802F03F025B
:1032A0005B6813F4800F13D01C4B5968C1F388116D
:1032B00000231C48A1FB0001FDF7B0FB174B5B6826
:1032C000C3F3014301335B00B0FBF3F0BDE8F08BC7
:1032D000124B5B68C3F388131E4600275C01002570
:1032E000E41A65EB0705A90141EA9461A001001BFE
:1032F00061EB0501CB0043EA5073C400A01943EB16
:1033000007018B0243EA90538402204619460023AA
:10331000FDF784FBD2E70348704700BF0038024046
:103320000024F40040787D01002800F09D8070B5F5
:1033300004464F4B1B6803F00F038B4209D2CBB2FC
:103340004B4A1370136803F00F038B4201D0012026
:1033500070BD236813F0020F17D013F0040F04D0D0
:10336000444A936843F4E0539360236813F0080FD2
:1033700004D0404A936843F4604393603D4A9368A5
:1033800023F0F003A068034393600D46236813F015
:10339000010F32D06368012B21D09A1E012A25D952
:1033A000344A126812F0020F60D032498A6822F063
:1033B000030213438B60FEF7B9FA06462D4B9B6858
:1033C00003F00C036268B3EB820F16D0FEF7AEFA7F
:1033D000801B41F288339842F0D90320B8E7254A90
:1033E000126812F4003FE0D10120B1E7214A1268CF
:1033F00012F0007FD9D10120AAE71D4B1B6803F012
:103400000F03AB4209D9EAB2194B1A701B6803F0DB
:103410000F03AB4201D001209AE7236813F0040F99
:1034200006D0144A936823F4E053E1680B43936099
:10343000236813F0080F07D00E4A936823F4604303
:10344000216943EAC1039360FFF71AFF094B9B68A8
:10345000C3F30313084AD35CD840084B186000201C
:10346000FEF71AFA002073E70120704701206FE78A
:10347000003C024000380240486300080000002081
:10348000014B1868704700BF0000002008B5FFF727
:10349000F7FF044B9B68C3F38223034AD35CD840F5
:1034A00008BD00BF003802405863000808B5FFF7A8
:1034B000E7FF044B9B68C3F34233034AD35CD84015
:1034C00008BD00BF003802405863000830B583B023
:1034D0000446036813F0050F0ED1236813F0020FA2
:1034E00036D1236813F0080F00F09980227C4D4BF1
:1034F0001A60002003B030BD4B4B00221A60FEF76B
:1035000015FA0546494B1B6813F0006F06D0FEF70D
:103510000DFA401B0228F5D90320EBE76268A36887
:103520001B0743EA8213414AC2F884303E4B012212
:103530001A60FEF7FBF905463C4B1B6813F0006F61
:10354000CBD1FEF7F3F9401B0228F5D90320D1E7D0
:1035500000230193354B1A6C42F080521A641B6CA5
:1035600003F080530193019B314A136843F4807345
:103570001360FEF7DBF905462D4B1B6813F4807FC3
:1035800006D1FEF7D3F9401B0228F5D90320B1E795
:10359000264B1B6F13F4407312D0E26802F44072A2
:1035A0009A420DD0214B1A6F22F44072214901201A
:1035B0000860002008601A671B6F13F0010F12D11A
:1035C000E36803F44072B2F5407F1DD0174A936858
:1035D00023F4F813936015490B6FE268C2F30B02F2
:1035E00013430B677DE7FEF7A1F905460F4B1B6FF1
:1035F00013F0020FE4D1FEF799F9401B41F2883332
:103600009842F3D9032075E708498A6822F4F81232
:1036100023F0704323F4407313438B60DBE70020F7
:1036200068E700BFE01147426800474200380240A7
:1036300000700040400E47427047000010B504463D
:103640000368DA6812F4807F03D09B6813F4805F0C
:103650000FD12368DA6812F4007F03D09B6813F45B
:10366000005F0FD10C4B4FF400325A610123637796
:1036700010BDFFF7E1FF2268D368DBB263F4C073CB
:10368000D360E6E7204600F0BEFA2268D368DBB2DA
:1036900063F42073D360E5E7003C014038B504468D
:1036A0000268D36823F0A003D360FEF73FF9054614
:1036B0002368DB6813F0200F07D1FEF737F9401BB2
:1036C000B0F57A7FF4D9032000E0002038BD38B58A
:1036D0000368DA6812F0400F01D0002038BD0446BC
:1036E0004FF0FF32DA60FEF721F905462368DB6808
:1036F00013F0400F07D1FEF719F9401BB0F57A7FA0
:10370000F4D90320EAE70020E8E738B500285CD0C8
:103710000446437F002B40D0022363772368CA22EC
:103720005A62236853225A622046FFF7D0FF0546AB
:10373000002836D12268936823F4E00323F0400385
:10374000936021688A686368206903436069034362
:1037500013438B602368E2681A6122681369A168C9
:1037600043EA014313612268D36823F08003D360E6
:1037700023689B6813F0200F1BD02268136C23F47E
:10378000802313642268136CA1690B4313642368BC
:10379000FF225A620123637709E00377FDF7EAFF0E
:1037A000BAE72368FF225A6204236377012528467B
:1037B00038BD2046FFF772FF0028DED02368FF22C5
:1037C0005A62042363770125F1E70125EFE700231F
:1037D00002E001330A38C0B20928FAD81B01DBB273
:1037E0001843704770B5037F012B66D00123037720
:1037F000022343773AB94B7813F0100F03D003F04C
:10380000EF030A334B700E460446002A32D1C878C3
:10381000FFF7DDFF05047078FFF7D9FF45EA0025C3
:10382000B078FFF7D4FF2843357840EA4535236860
:10383000CA225A62236853225A622046FFF747FF82
:10384000064610BB236825F07F4525F0C0055D6066
:103850002268D36823F08003D36023689B6813F049
:10386000200F1CD02368FF225A62012363770023B4
:10387000237712E0CD784878000240EA05408D7841
:1038800028430D7840EA4535D1E72368FF225A6284
:1038900004236377002323770126304670BD20463A
:1038A000FFF7FCFE0028DDD02368FF225A620423C4
:1038B0006377002323770126EFE70226EDE7F8B5CB
:1038C000037F012B78D00D460446012303770223A2
:1038D0004377002A46D103689B6813F0400F01D15B
:1038E0000023CB702878FFF772FF06046878FFF793
:1038F0006EFF46EA0026A878FFF769FF3043EE78AE
:1039000040EA06462368CA225A62236853225A6252
:103910002046FFF7DCFE0746002835D1236806F075
:103920007F3626F0FE461E602268936823F48023CB
:10393000936021688B68EA682869024313438B60AF
:103940002268D36823F08003D36023689B6813F058
:10395000200F23D02368FF225A62012363770023BC
:10396000237719E003689B6813F0400F01D100230F
:10397000CB702B786878000240EA0340AB7818439C
:10398000EE7840EA0646BDE72368FF225A62042328
:1039900063770023237701273846F8BD2046FFF7D9
:1039A0007DFE0028D6D02368FF225A620423637765
:1039B000002323770127EFE70227EDE7F0B583B077
:1039C000634B1B68634CA4FB0343DB0A4FF47A761A
:1039D00006FB03F30193037F012B00F0B6800D4635
:1039E00004460123037702234377002A61D1036849
:1039F0009B6813F0400F01D10023CB70EF6928784A
:103A0000FFF7E5FE06046878FFF7E1FE46EA0026C8
:103A1000A878FFF7DCFE0643E87846EA004695F80A
:103A20002000FFF7D4FE46EA006038436B69184374
:103A30006968AB6919432368CA225A622368532212
:103A40005A626B6AB3F5807F4DD02268936823F485
:103A5000007393602268D368DBB263F42073D36091
:103A6000019B5A1E0192002B67D02368DA6812F07E
:103A7000020FF5D01862236899642268936843F4B2
:103A8000007393602268936843F400539360324B51
:103A90001A6842F400321A609A6842F400329A605E
:103AA0002368FF225A62012363770020207703B046
:103AB000F0BD03689B6813F0400F01D10023CB7069
:103AC000EA6929786B781B0243EA0143A9780B4322
:103AD000E97843EA014395F8201043EA0163134370
:103AE00068691843A4E72268936823F4807393609D
:103AF0002268D368DBB263F4C073D360019B5A1EA3
:103B0000019293B12368DA6812F0010FF6D0D86100
:103B1000236859642268936843F480739360226831
:103B2000936843F480539360B1E72368FF225A629D
:103B30000320607700232377B9E72368FF225A62C6
:103B40000320607700232377B1E70220AFE700BFAF
:103B500000000020D34D6210003C0140030903EB3C
:103B600083035A0000F00F001044C0B2704770B5D4
:103B700003689B6A4B6003681B69C3F30E038B6089
:103B800003681B6803F07F3323F0FE431D0C05F030
:103B90003F000870C3F306264E7003F07F048C705C
:103BA00005F04005CD705AB90D46FFF7D7FF2870D4
:103BB0003046FFF7D3FF68702046FFF7CFFFA870AD
:103BC000002070BD70B503685B6823F07F4323F06D
:103BD000C003180CC870C3F304264E7003F03F05F1
:103BE0008D70C3F342330B705AB90C46FFF7B6FF22
:103BF000E0703046FFF7B2FF60702846FFF7AEFF77
:103C0000A070002070BD70470268D36823F49073E1
:103C1000D3600268536923F001035361202380F8C5
:103C20003A30704790F83930DBB2212B2AD18368C3
:103C3000B3F5805F16D0036A5A1C02621A780368D3
:103C40005A60C38C013B9BB2C384EBB90268D36852
:103C500023F08003D3600268D36843F04003D3604D
:103C600000207047036A1B880268C3F3080353608F
:103C700003691BB9036A02330362E2E7036A013393
:103C80000362DEE702207047002070472DE9F84309
:103C9000044601680A6922F44052C36813430B6169
:103CA0000168CA6822F4164222F00C028368006997
:103CB000034360690343E06903431343CB60216816
:103CC0004A6922F44072A36913434B61E369B3F577
:103CD000004F60D02368B84A934200F0148102F587
:103CE0008062934200F00F81FFF7D0FB00EB800071
:103CF00000EB80006568AD00B0FBF5F5AF4FA7FBAA
:103D000005356D092E01FFF7C1FB00EB800000EBCC
:103D100080006568AD00B0FBF5F9FFF7B7FB00EB7D
:103D2000800000EB80006568AD00B0FBF5F5A7FBF7
:103D300005356D094FF0640808FB15952D013235E6
:103D4000A7FB05356D0905F0F0053544FFF79EFB2F
:103D500000EB800000EB80006668B600B0FBF6F672
:103D6000FFF794FB00EB800000EB800063689B0092
:103D7000B0FBF3F0A7FB0030400908FB10684FEAE6
:103D8000081808F13208A7FB0837C7F34317236860
:103D90002F449F600DE12368874A93425BD002F570
:103DA0008062934257D0FFF771FB00EB800000EB7D
:103DB000800065686D00B0FBF5F5804FA7FB053509
:103DC0006D092E01FFF762FB00EB800000EB800025
:103DD00065686D00B0FBF5F9FFF758FB00EB80005C
:103DE00000EB800065686D00B0FBF5F5A7FB0535BD
:103DF0006D094FF0640808FB1595ED003235A7FBFF
:103E000005356D096D0005F4F8753544FFF73EFB87
:103E100000EB800000EB800066687600B0FBF6F6F1
:103E2000FFF734FB00EB800000EB800063685B0071
:103E3000B0FBF3F3A7FB03235B0908FB13684FEA0E
:103E4000C80808F13208A7FB0837C7F342172368F0
:103E50002F449F60ADE0FFF729FB00EB800000EBF3
:103E6000800065686D00B0FBF5F5544FA7FB053584
:103E70006D092E01FFF71AFB00EB800000EB8000BC
:103E800065686D00B0FBF5F9FFF710FB00EB8000F3
:103E900000EB800065686D00B0FBF5F5A7FB05350C
:103EA0006D094FF0640808FB1595ED003235A7FB4E
:103EB00005356D096D0005F4F8753544FFF7F6FA20
:103EC00000EB800000EB800066687600B0FBF6F641
:103ED000FFF7ECFA00EB800000EB800063685B000A
:103EE000B0FBF3F3A7FB03235B0908FB13684FEA5E
:103EF000C80808F13208A7FB0837C7F34217236840
:103F00002F449F6055E0FFF7D1FA00EB800000EBF3
:103F100080006568AD00B0FBF5F5284FA7FB0535BF
:103F20006D092E01FFF7C2FA00EB800000EB800064
:103F30006568AD00B0FBF5F9FFF7B8FA00EB80005B
:103F400000EB80006568AD00B0FBF5F5A7FB05351B
:103F50006D094FF0640808FB15952D013235A7FB5C
:103F600005356D0905F0F0053544FFF79FFA00EBC4
:103F7000800000EB80006668B600B0FBF6F6FFF745
:103F800095FA00EB800000EB800063689B00B0FBBB
:103F9000F3F0A7FB0030400908FB10684FEA08184F
:103FA00008F13208A7FB0837C7F3431723682F44EB
:103FB0009F60BDE8F88300BF001001401F85EB51F2
:103FC00058B310B5044690F839300BB3242384F865
:103FD00039302268D36823F40053D3602046FFF7BA
:103FE00055FE2268136923F49043136122685369D4
:103FF00023F02A0353612268D36843F40053D3604B
:104000000020E063202384F8393084F83A3010BD72
:1040100080F83830FDF7C4FBD8E70120704790F8EE
:104020003930DBB2202B16D1B9B1C2B190F838309B
:10403000012B16D001628284C2840023C363212233
:1040400080F8392080F838300168CA6842F0800270
:10405000CA6018467047022070470120704701204F
:10406000704702207047704708B50168CB6823F09D
:104070004003CB60202380F83930FFF7F4FF0020A5
:1040800008BD704708B590F83A30DBB2222B40D11A
:104090008368B3F5805F0ED0036903BB03685A6879
:1040A000836A591C81621A70C38D013B9BB2C38520
:1040B000F3B100202EE0826A036943B903685B68AC
:1040C000C3F308031380836A02338362ECE7036857
:1040D0005B68DBB21380836A01338362E4E70368C1
:1040E0005B68826A511C816203F07F031370DBE717
:1040F0000268D36823F49073D3600268536923F095
:1041000001035361202380F83A30FFF7BAFF002003
:1041100000E0022008BD704710B50446026813682D
:10412000D168526913F00F0005D113F0200F02D0AF
:1041300011F0200F53D1002867D012F0010202D1F4
:1041400011F4907F61D013F0010F06D011F4807F3D
:1041500003D0E06B40F00100E06313F0040F04D0E3
:104160001AB1E06B40F00200E06313F0020F04D0DC
:104170001AB1E06B40F00400E06313F0080F04D0C4
:104180001AB1E26B42F00802E263E26B002A48D007
:1041900013F0200F02D011F0200F24D123685B69A7
:1041A00003F04003E26B12F0080F00D13BB320464E
:1041B000FFF72AFD23685A6912F0400F1BD05A6995
:1041C00022F040025A61636B8BB11A4A1A65606B28
:1041D000FDF7CEFF28B3606B036D984721E02046C2
:1041E000FFF750FF1DE02046FFF74CFFD6E72046C3
:1041F000FFF791FF15E02046FFF78DFF11E0204605
:10420000FFF789FF0023E3630BE013F0800F02D078
:1042100011F0800F06D113F0400F02D011F0400FC3
:1042200004D110BD2046FFF7FDFCFAE72046FFF75A
:104230001BFFF6E73942000808B5806B0023C385F1
:10424000C384FFF768FF08BD70B50D4E0D4CA41B6D
:10425000A4100025A54209D10B4E0C4C02F068F8C1
:10426000A41BA4100025A54205D170BD56F8253029
:1042700098470135EEE756F8253098470135F2E7C3
:104280008866000888660008886600088C66000852
:1042900002440346934200D1704703F8011BF9E73B
:1042A0002DE9FF4755EC104B0D9FDDF830A0002D98
:1042B0000E4691461946B8BF22462B4627F02007E6
:1042C000BBBF05F100431D4600232D23B8BF144694
:1042D000462F0B7004D0452F00D10136022100E09B
:1042E000032103AB019302AB00933246534645ECE6
:1042F000104B00F0DDFC472F804602D119F0010F72
:1043000026D0462F08EB060911D198F80030302B43
:104310000AD10022002320462946FCF7AFFD18B938
:10432000C6F10106CAF80060DAF8003099440022AC
:10433000002320462946FCF7A1FD38B93022039B13
:104340004B4505D2591C03911A70F8E7CDF80C9033
:10435000039B0E9AA3EB08034046136004B0BDE82C
:10436000F087F7B500290446BABF49422D232B2315
:10437000092904F8022B437020DD0DF107031F46C5
:104380000A2691FBF6F506FB15113031092D03F8CD
:10439000011C03F1FF32294609DC3031023B02F8EF
:1043A000011CBB42224604D3101A03B0F0BD1346D1
:1043B000E7E713F8012B04F8012BF2E73023194447
:1043C0008370021DC170EFE72DE9F04F8DB00C46F0
:1043D000DDF8588016461F46054601F021FA0368AD
:1043E00004931846FCF79AFC00230A93D8F800308F
:1043F0000590073323F0070303F1080294F818A08F
:10440000D4F800B0C8F80020D3E90023C4E912238F
:10441000D4E9128929F000430793CDF818804FF0B2
:10442000FF32A74BDDE90601FCF75AFD70BB4FF0E8
:10443000FF32A34BDDE90601FCF734FD30BB00225F
:10444000002340464946FCF723FD10B12D2384F894
:1044500043309C4A9C4BBAF1470F8CBF904698461C
:1044600003232BF00402236122604FF00009009720
:1044700033460BAA2146284600F0E6F9013040F009
:104480008D804FF0FF300DB0BDE8F08F42464B46B7
:1044900040464946FCF724FD10B18C4A8C4BDAE7C4
:1044A00061684B1C4BF480620AA83ED1062363600E
:1044B0000023CDE9020309AB009349EC108B0DF109
:1044C00023032260CDF804A061682846FFF7E8FEC8
:1044D0000AF0DF03472B804609D1099BD81C02DB79
:1044E0006268934247DDAAF1020A5FFA8AFABAF1DA
:1044F000650F099924D80139524604F150000991F9
:10450000FFF72FFF0A9A1318012A8146236102DC64
:104510002268D10701D5013323619DF82330002B98
:10452000A5D02D2384F84330A1E7BAF1670F00F03E
:104530007781BAF1470FBBD10029B9D10123B6E782
:10454000BAF1660F19D1002963680CDD216113B936
:104550002268D20702D501330B442361099BA3656E
:104560004FF00009D9E713B92268D00701D502330B
:10457000F3E70123F1E74FF0670ADDE909329342DF
:1045800005DB22682361D107E8D50133E5E7002B7D
:10459000D4BFC3F1020301231344DEE723685A05A5
:1045A00007D42369424631462846B84701302BD10B
:1045B00067E7BAF1650F40F2DC8000220023D4E9FE
:1045C0001201FCF75BFC002833D00123414A31463D
:1045D0002846B84701303FF454AFDDE909239A4239
:1045E00002DB2368D8070FD5DDE9042331462846CE
:1045F000B84701303FF445AF4FF0000804F11A0905
:104600000A9B013B434509DC23689B0700F10381BA
:10461000E0680B9B9842B8BF184634E701234A462E
:1046200031462846B84701303FF42BAF08F1010866
:10463000E6E7099B002B2BDC0123264A314628465E
:10464000B84701303FF41DAF099B23B90A9B13B94A
:104650002368D907D8D5DDE9042331462846B84771
:1046600001303FF40EAF4FF0000904F11A0A099B24
:104670005B424B4501DC0A9B94E7012352463146DD
:104680002846B84701303FF4FCAE09F10109EEE7D6
:104690000A9AA36D9A42A8BF1A46002A914607DDDE
:1046A0001346314642462846B84701303FF4E9AE4A
:1046B00004F11A034FF0000B29EAE979069315E09B
:1046C000FFFFEF7F286400082464000830640008BE
:1046D0002C640008346400080123069A31462846F9
:1046E000B84701303FF4CDAE0BF1010BD4F858A020
:1046F000AAEB09035B45EFDCDDE909239A42D044CC
:1047000015DB2368DA0712D40A9B0999A3EB0A0286
:10471000A3EB010A9245A8BF9246BAF1000F0EDC46
:104720004FF000082AEAEA7A04F11A0919E0DDE9F3
:10473000042331462846B8470130E5D1A1E6534667
:10474000424631462846B8470130E9D199E601236F
:104750004A4631462846B84701303FF492AE08F148
:104760000108DDE909239B1AA3EB0A034345EEDCAC
:104770004AE70A9A012A01DCDB073AD501234246BF
:1047800031462846B84701303FF47BAEDDE90423CB
:1047900031462846B847013008F101083FF471AEB0
:1047A0000A9B002203F1FF3AD4E912010023FCF72F
:1047B00065FBC8B95346424631462846B8470130E2
:1047C0000ED15EE60123524631462846B8470130F5
:1047D0003FF457AE08F101080A9B013B4345F1DC69
:1047E0004B4604F15002DEE64FF0000804F11A0ACD
:1047F000F2E70123DFE701234A4631462846B8475E
:1048000001303FF43EAE08F10108E3680B9A9B1AB1
:104810004345F0DCFCE64FF0000804F11909F4E729
:1048200000293FF48BAE0023CDE9020309AB0093CE
:1048300049EC108B2260CDF804A00DF1230328462B
:10484000FFF72EFD804648E62DE9F04791461F46CA
:104850008A680B69DDF820809342B8BF1346C9F817
:10486000003091F8432006460C4612B10133C9F8D6
:1048700000302368990642BFD9F800300233C9F8E6
:104880000030256815F0060507D104F1190AE36820
:10489000D9F800209B1AAB4228DC94F843302268F8
:1048A000003318BF012392062DD404F14302394688
:1048B0003046C047013020D02368E568D9F8002091
:1048C00003F00603042B08BFAD1AA36822690CBFCE
:1048D00025EAE57500259342C4BF9B1AED184FF0F9
:1048E00000091A344D451AD1002008E00123524630
:1048F00039463046C047013003D14FF0FF30BDE8A4
:10490000F0870135C3E7E1185A1C302081F84300D5
:10491000224494F8451082F843100233C5E701237E
:10492000224639463046C0470130E6D009F1010938
:10493000D8E700002DE9F04301F1430C0C46097E55
:1049400085B06E291746064698460C9A00F0B3804B
:1049500022D8632936D00AD8002900F0B980582916
:1049600000F0838004F1420584F8421032E06429AB
:1049700001D06929F6D120681368050603F1040106
:104980002AD51B681160002B03DA2D225B4284F8C4
:1049900043206F480A2239E0732900F09D8008D82F
:1049A0006F2920D07029DDD1236843F020032360D4
:1049B00003E0752917D07829D4D1782384F84530BD
:1049C000644855E01368191D1B68116004F1420525
:1049D00084F8423001238CE01B68116010F0400F16
:1049E00018BF1BB2CFE713682568181D1060280692
:1049F00001D51B6802E06806FBD51B8854486F2967
:104A000014BF0A220822002184F843106568A560BB
:104A1000002DC0F29580216821F004012160002B57
:104A20003DD1002D40F08E806546082A0BD12368C9
:104A3000DB0708D5236962689A42DEBF302305F898
:104A4000013C05F1FF35ACEB05032361CDF8008097
:104A50003B4603AA21463046FFF7F6FE01304DD112
:104A60004FF0FF3005B0BDE8F083394884F84510B9
:104A7000136821681D1D1B6815600A060BD5CA073F
:104A800044BF41F0200121601BB9226822F02002BE
:104A900022601022B7E74D0648BF9BB2EFE765469C
:104AA000B3FBF2F102FB1133C35C05F8013D0B4689
:104AB0000029F5D1B9E7136825686169181D1060F0
:104AC00028061B6801D5196002E06A06FBD519802B
:104AD000002323616546B9E71368191D11601D683D
:104AE000626800212846FCF723F908B1401B60608A
:104AF00063682361002384F84330A7E723692A46CB
:104B000039463046C0470130AAD023689B0713D4EA
:104B1000E068039B9842B8BF1846A3E701234A46C2
:104B200039463046C04701309AD00135E368039AD0
:104B30009B1AAB42F2DCEBE7002504F11909F5E71B
:104B4000002BACD1037884F8423004F142056CE7C5
:104B500036640008476400080EB400B59CB01DAB75
:104B6000029006906FF000410948079104910949AD
:104B700053F8042B05910068019302A901F05CFA37
:104B8000029B00221A701CB05DF804EB03B0704762
:104B90000C0000200802FFFF2DE9F74F03690C69A4
:104BA000A3428046C0F28280013C01F114074FEA23
:104BB000840C00F1140657F8245056F8240006EB34
:104BC0000C03013507EB0C090193B0FBF5F595B328
:104BD0004FF0000A3846B646D34650F8042B93B23D
:104BE00005FB03A34FEA134A9BB2ABEB0303120C82
:104BF000DEF800B005FB02A213FA8BF34FEA124A6B
:104C00001FFA82FBDEF80020CBEB124202EB2342BC
:104C10009BB243EA024381454FEA224B4EF8043BE4
:104C2000DBD256F80C3033B9019B043B9E421A4646
:104C300030D3C8F81040404601F028F8002825DBA2
:104C4000013530464FF0000C57F8042BD0F800E047
:104C500093B2ACEB0303120C13FA8EF3C2EB1E42B9
:104C600002EB23429BB243EA0243B9454FEA224C8E
:104C700040F8043BE8D256F8242006EB84032AB916
:104C8000043B9E421A460BD3C8F81040284603B096
:104C9000BDE8F08F1268043B002ACAD1013CC5E789
:104CA0001268043B002AEFD1013CEAE70020EEE75E
:104CB0002DE9F04F57EC106B97B0456A069104460A
:104CC0000B921293DDF88080CDE900673DB910208A
:104CD00000F0B4FD6062C0E901550560C560636A1B
:104CE000196851B15A684A60012393408B6020468D
:104CF00000F0EBFD636A00221A603B1EBBBF23F08D
:104D00000043019300230122ACBFC8F80030C8F86B
:104D10000020AF4BDDF8048033EA080314D1129A67
:104D200042F20F731360009B23B9C8F313000028ED
:104D300000F04285219BDFF8ACB2002B00F04485E7
:104D40000BF1030300F03EBDDDE900670022002304
:104D500030463946FCF792F8814668B1129A012331
:104D60001360219B002B00F024859A4B219A03F1BC
:104D7000FF3B136000F028BD14AA15A947EC106B87
:104D8000204600F0FAFFC8F30A550490002D7CD0AD
:104D9000C7F3130343F07F5BB2464BF4401BA5F20D
:104DA000FF35CDF84C9000228B4B50465946FBF70F
:104DB0001BFA81A3D3E90023FBF7CEFB80A3D3E941
:104DC0000023FBF713FA064628460F46FBF75AFB6B
:104DD0007DA3D3E90023FBF7BFFB02460B46304619
:104DE0003946FBF703FA06460F46FCF78FF8002218
:104DF0008246002330463946FCF74AF848B150460F
:104E0000FBF740FB32463B46FCF738F808B90AF19D
:104E1000FF3ABAF1160F59D8704901EBCA01DDE922
:104E20000023D1E90001FCF751F8002850D00AF125
:104E3000FF3A00230F93149B5D1BB5F1010849BF96
:104E4000C5F10103002305934FF0000858BF0593F7
:104E5000BAF1000F3EDB0023D044CDF838A0079311
:104E6000069B092B00F29080052BC4BF043B0693E0
:104E7000069BA3F10203CCBF00250125032B00F202
:104E80008F80DFE803F07D7F3171DDE914531D442D
:104E900005F23240202813DDC0F14000009B08FAE3
:104EA00000F805F2124023FA00F048EA0000FBF790
:104EB000D9FA01238246A1F1F87B013D139372E7F1
:104EC000009BC0F1200003FA00F0F0E70123B1E7F6
:104ED0000F90B0E7059BA3EB0A030593CAF100030B
:104EE000079300230E93BBE701230A930B9B002B30
:104EF00059DD02939946666A00227260042202F12B
:104F000014009842716853D9204600F0AAFC636AE5
:104F10003060B9F10E0FD3F800B000F2E680002D3A
:104F200000F0E3809DED007BBAF1000F8DED107B6A
:104F300074DD2A4A0AF00F0302EBC30393ED007BF2
:104F40004FEA2A16F0068DED087B65D5244BDDE986
:104F50001001D3E90823FBF729FCCDE9000106F095
:104F60000F0603251E4F4CE001230A930B9B53446D
:104F700003F1010902934B46012BB8BF0123BAE7A5
:104F80000023B2E70023F0E70125002306930A95EA
:104F90004FF0FF3302939946002212230B92AAE7A7
:104FA00001230A93F4E70123029399461A46F5E791
:104FB000013171605200A2E761436F63A787D23F5E
:104FC000B3C8608B288AC63FFB799F501344D33FF8
:104FD0000000F07F356400080000F83F906400088E
:104FE0006864000861640008F10708D5DDE908017C
:104FF000D7E90023FBF7B0FACDE9080101357610B7
:105000000837002EF0D1DDE90823DDE90001FBF7C8
:10501000CDFBCDE900011AE00225A3E700F0A08056
:10502000CAF100069F4BA04F06F00F0203EBC2032C
:10503000D3E90023DDE91001FBF78EFACDE9000189
:10504000361100230225002E7FD1002BE1D10F9BCA
:10505000002B00F08780DDE900670022934B30468B
:105060003946FBF715FF00287CD0B9F1000F79D045
:10507000029B002B35DD0AF1FF33089339460022ED
:105080008B4B3046FBF768FACDE90001029F0135F2
:105090002846FBF7F7F9DDE90023FBF75DFA00226C
:1050A000844BFBF7A3F80546A1F15076002F5DD1A4
:1050B0000022814BDDE90001FBF796F82A463346D2
:1050C000CDE90001FBF702FF002840F088822A4664
:1050D00006F10043DDE90001FBF7DAFE002840F0AD
:1050E0007C82DDE91023CDE90023159B002BC0F263
:1050F0005081BAF10E0F00F34C816A4B03EBCA03E7
:1051000093ED007B0B9B002B8DED027B80F2D88012
:10511000B9F1000F00F3D48040F05E820022664BAC
:1051200051EC170BFBF718FADDE90023FBF7C4FE7F
:105130004F464E46002840F0348231230BF10105E2
:105140008BF800300AF1010A2FE2F20705D5D7E902
:105150000023FBF701FA013501237610083772E7C7
:10516000022574E7CDF820A04F4691E74D4B03EBA5
:10517000C70353E902010A9B002B47D002460B46A6
:1051800000204E49FBF712FB2A463346FBF72CF86A
:10519000CDE90C015D46DDE90001FBF7B7FE0646EF
:1051A000FBF770F902460B46DDE90001FBF71CF83E
:1051B000303605F8016BDDE90C23CDE90001FBF782
:1051C00067FE002863D1DDE9002300203749FBF7A3
:1051D0000BF8DDE90C23FBF75BFE002840F0B780FD
:1051E000A5EB0B039F427FF77CAF0022304BDDE93C
:1051F0000C01FBF7B1F90022CDE90C012C4BDDE9E4
:105200000001FBF7A9F9CDE90001C4E72A463346BE
:10521000FBF7A2F9CDE90C010BEB07055E46DDE9D2
:105220000001FBF773FE0746FBF72CF93037024607
:105230000B46DDE90001FAF7D7FF06F8017BAE4225
:10524000CDE900014FF0000226D11C4BDDE90C0135
:10525000FAF7CCFF02460B46DDE90001FBF736FE0C
:10526000002874D1DDE90C2300201449FAF7BCFFB3
:1052700002460B46DDE90001FBF70AFE00283FF479
:1052800030AF15F8013C302B05F1FF3202D0DDF8CC
:1052900020A04AE01546F4E7054BFBF75DF9CDE9A0
:1052A0000001BCE790640008686400080000F03F5B
:1052B0000000244000001C40000014400000E03FBB
:1052C000DDE900675D46DDE9022330463946FBF73C
:1052D0006DFAFBF71BFE8046FBF7D4F8DDE90223ED
:1052E000FBF73AF902460B463046394608F13006DC
:1052F000FAF77AFF05F8016BA5EB0B06B1450246FC
:105300000B4639D1FAF772FFDDE9022306460F4654
:10531000FBF7DCFDC8B9DDE9022330463946FBF76F
:10532000ADFD10B118F0010F0FD10499204600F027
:10533000CCFA0023129A2B700AF101031360219B0F
:10534000002B00F041821D603EE2CDF820A015F850
:10535000012C392A05F1FF3308D19B450AD1089B5E
:105360000133089330238BF800305B461A78013202
:105370001A708CE71D46EAE700229B4BFBF7ECF81E
:105380000022002306460F46FBF778FD00289AD03E
:10539000CBE70A9A002A00F08B80069A012A6EDC7D
:1053A000139A002A67D003F23343079F059D059A9D
:1053B00001211A4420460592984400F026FB064637
:1053C000002D0CDDB8F1000F09DD4545059A2B468F
:1053D000A8BF4346D21A0592ED1AA8EB0308079B13
:1053E000EBB10A9B002B67D08FB131463A4620467D
:1053F00000F0AAFB049A01460646204600F00EFB88
:1054000004990890204600F060FA089B0493079BDB
:10541000DA1B04D00499204600F096FB0490012189
:10542000204600F0F2FA0E9B0746002B00F0D081D8
:105430001A460146204600F087FB069B012B0746D3
:1054400040DC009B002B39D1019BC3F31303002BDD
:1054500036D1019B23F000431B0D1B052BB1059B8F
:105460000133059308F10108012307930E9B002BDC
:105470002AD1012030E0149BC3F1360395E7079B46
:1054800009F1FF37BB42BFBF079B0797FA1A0E9B74
:10549000BBBF9B180E93DF1B0027B9F1000FB5BFF0
:1054A000059B059DA3EB09054B46B8BF00237EE78E
:1054B000079F059D0A9E83E7079AABE70023D4E781
:1054C000009BD2E7002307933B6907EB830318692E
:1054D00000F04DFAC0F12000404410F01F0047D00A
:1054E000C0F12003042B3BDD059BC0F11C000344ED
:1054F000059305448044059B002B05DD1A4604995D
:10550000204600F06FFB0490B8F1000F05DD39462E
:105510004246204600F066FB07460F9B53B33946D0
:10552000049800F0B3FB002824DA00230A2204992F
:10553000204600F0E1F90A9B04900AF1FF3A002BA3
:1055400000F04D81002331460A22204600F0D4F9B4
:10555000029B002B06464FDC069B022B4CDD11E024
:10556000C9D0059A1C331A4405921D449844C2E7D9
:105570000346F6E7B9F1000F38DC069B022B35DD58
:10558000CDF80890029B63B939460522204600F009
:10559000B3F901460746049800F078FB00283FF76E
:1055A000CCAD0B9B5D466FEA030A4FF0000939460C
:1055B000204600F08AF9002E3FF4B7AEB9F1000F93
:1055C00005D0B14503D04946204600F07EF931466A
:1055D000204600F07AF9A8E600273E46E1E7DDF82C
:1055E00020A03E46A9E500BF000024400A9BCDF85C
:1055F0000890002B00F0FA80002D05DD31462A4688
:10560000204600F0EFFA0646079B002B4CD071684D
:10561000204600F026F9326902320546920006F172
:105620000C010C3000F012F901222946204600F04E
:10563000D9FA009BCDF814B003F00103B1460793EB
:10564000064639460498FFF7A7FA4946054600F191
:105650003008049800F01AFB324600903946204684
:1056600000F02EFBC368024603BB01460890049875
:1056700000F00CFB089A034611462046089300F000
:1056800024F9089BA3B9069A92B9079A82B9B8F18E
:10569000390F29D0009B002B01DD05F13108059B56
:1056A0005D1C83F8008082E73046C2E70123E3E710
:1056B000009A002A04DB25D1069A1ABB079A0ABB76
:1056C000002BECDD01220499204600F08BFA3946CC
:1056D000049000F0DBFA002803DCE0D118F0010FA1
:1056E000DDD0B8F1390FD8D1059B059A5D1C39235F
:1056F000137015F8013C392B05F1FF324FD00133FF
:10570000137054E7059A002B02F1010506DDB8F18C
:10571000390FE9D008F10108059BC2E7029A05F8A4
:10572000018CA5EB0B03934221D000230A2204999C
:10573000204600F0E1F8B14504904FF000034FF02F
:105740000A024946204605D100F0D6F881460646B1
:10575000059576E700F0D0F83146814600230A220D
:10576000204600F0C9F80646F2E74FF00009012292
:105770000499204600F036FA3946049000F086FA83
:105780000028B6DC02D118F0010FB2D115F8013CA7
:10579000302B05F1FF327FF40AAF1546F6E793454B
:1057A00005D131230AF1010A8BF80030FFE61546D6
:1057B0009FE7DFF864B007E0219BDFF860B01BB122
:1057C0000BF10803219A1360584617B0BDE8F08F1B
:1057D000069B012B7FF735AE0E9B079349E6029B94
:1057E000002B03DC069B022B3FF7CCAE5D4639460F
:1057F0000498FFF7D1F900F1300805F8018B029AFF
:10580000A5EB0B039A42B0DD00230A22049920463F
:1058100000F072F80490EAE7346400085864000865
:10582000044B1B68186A044B002808BF1846F03068
:10583000704700BF0C00002070000020024B0146A2
:10584000186800F045BB00BF0C00002010B5431ED7
:105850000A44914200D110BD11F8014B03F8014FE9
:10586000F7E770B5456A04460E463DB91020FFF7CC
:10587000E5FF6062C0E901550560C560656AEB68D7
:1058800083B1636ADB6853F82600B8B9012101FAD5
:1058900006F56A1D9200204600F0BEFA60B1C0E92C
:1058A00001650EE021220421204600F0B5FA636A6A
:1058B000E860DB68002BE4D1002070BD026843F88B
:1058C00026200023C0E90333F7E770B5446A064693
:1058D0000D463CB91020FFF7B1FF7062C0E90144EA
:1058E0000460C4603DB1736A6A68DB6853F82210D3
:1058F000296043F8225070BD2DE9F0410D691F4623
:1059000006460C4601F1140C0023DCF8000081B2BD
:1059100002FB01710F0C000C02FB007089B2013315
:1059200001EB00419D424FEA10474CF8041BECDCB0
:10593000D7B1A368AB4212DC616830460131FFF792
:1059400090FF2269023204F10C01804692000C3073
:10595000FFF77CFF21463046FFF7B7FF444604EBD4
:10596000850301355F6125612046BDE8F081020CA9
:1059700012040346B2B90304102013F07F4F04BF92
:105980001B02083013F0704F04BF1B01043013F0EA
:10599000404F04BF9B000230002B06DB5B0003D5A9
:1059A000013070470020E8E720207047036813F0BB
:1059B000070201460BD0DA0723D4980749BF5B08DA
:1059C0009B0801200B605CBF0B600220704798B2FF
:1059D000A8B91B0C102013F0FF0F04BF1B0A0830DE
:1059E0001A0704BF1B0904309A0704BF9B08023042
:1059F000DA0702D45B0806D001300B60704710460E
:105A0000E9E7002070472020704710B50C460121BF
:105A1000FFF727FF01224461026110BD2DE9F74F16
:105A200014460A6923699A42B8BF0B468846BCBF30
:105A3000A0461C46D8F81070D4F81090D8F808305A
:105A4000D8F8041007EB0906B342B8BF0131FFF7DD
:105A500008FF00F1140505EB860E2B460022734566
:105A600016D304F1140208F1140102EB890301EBCF
:105A700087070093009B019293420CD8002E03DD10
:105A80005EF8043D002B5DD0066103B0BDE8F08FE9
:105A900043F8042BE3E7B2F800B0BBF1000F23D0CA
:105AA0008946AC464FF0000859F8044BDCF800A0DA
:105AB000A3B21FFA8AFA0BFB03A34FEA144ADCF8DD
:105AC000004043444FEA14480BFB0A8404EB1344A0
:105AD000E2469BB243EA04434F454FEA14484AF872
